{
  "contractName": "Identity",
  "abi": [
    {
      "anonymous": false,
      "inputs": [
        {
          "indexed": true,
          "internalType": "bytes32",
          "name": "uid",
          "type": "bytes32"
        }
      ],
      "name": "UserAdded",
      "type": "event"
    },
    {
      "inputs": [
        {
          "internalType": "string",
          "name": "_name",
          "type": "string"
        },
        {
          "internalType": "string",
          "name": "_dob",
          "type": "string"
        },
        {
          "internalType": "uint256",
          "name": "_idtype",
          "type": "uint256"
        },
        {
          "internalType": "uint256",
          "name": "idNum",
          "type": "uint256"
        },
        {
          "internalType": "string",
          "name": "idaddr",
          "type": "string"
        },
        {
          "internalType": "string",
          "name": "idgender",
          "type": "string"
        }
      ],
      "name": "addUser",
      "outputs": [
        {
          "internalType": "bytes32",
          "name": "",
          "type": "bytes32"
        }
      ],
      "stateMutability": "nonpayable",
      "type": "function"
    },
    {
      "inputs": [
        {
          "internalType": "string",
          "name": "_name",
          "type": "string"
        },
        {
          "internalType": "bytes32",
          "name": "_uid",
          "type": "bytes32"
        },
        {
          "internalType": "uint256",
          "name": "_idNum",
          "type": "uint256"
        }
      ],
      "name": "verifyUser",
      "outputs": [
        {
          "internalType": "bool",
          "name": "",
          "type": "bool"
        }
      ],
      "stateMutability": "view",
      "type": "function",
      "constant": true
    },
    {
      "inputs": [
        {
          "internalType": "bytes32",
          "name": "hash",
          "type": "bytes32"
        }
      ],
      "name": "display",
      "outputs": [
        {
          "internalType": "string",
          "name": "name",
          "type": "string"
        },
        {
          "internalType": "string",
          "name": "dob",
          "type": "string"
        },
        {
          "internalType": "uint256",
          "name": "idtype",
          "type": "uint256"
        },
        {
          "internalType": "uint256",
          "name": "aadharNum",
          "type": "uint256"
        },
        {
          "internalType": "string",
          "name": "aadharAddr",
          "type": "string"
        },
        {
          "internalType": "string",
          "name": "aadharGender",
          "type": "string"
        }
      ],
      "stateMutability": "view",
      "type": "function",
      "constant": true
    }
  ],
  "bytecode": "0x608060405234801561001057600080fd5b50610f45806100206000396000f3fe608060405234801561001057600080fd5b50600436106100415760003560e01c806375a5250614610046578063bac11cc91461007b578063ea9f51ef146100ab575b600080fd5b610060600480360381019061005b9190610849565b6100db565b60405161007296959493929190610bee565b60405180910390f35b61009560048036038101906100909190610876565b61046b565b6040516100a29190610bb8565b60405180910390f35b6100c560048036038101906100c091906108e5565b610548565b6040516100d29190610bd3565b60405180910390f35b60608060008060608086600080898152602001908152602001600020600001541461013b576040517f08c379a000000000000000000000000000000000000000000000000000000000815260040161013290610c8b565b60405180910390fd5b60008060008981526020019081526020016000206040518060800160405290816000820154815260200160018201805461017490610d9f565b80601f01602080910402602001604051908101604052809291908181526020018280546101a090610d9f565b80156101ed5780601f106101c2576101008083540402835291602001916101ed565b820191906000526020600020905b8154815290600101906020018083116101d057829003601f168201915b5050505050815260200160028201805461020690610d9f565b80601f016020809104026020016040519081016040528092919081815260200182805461023290610d9f565b801561027f5780601f106102545761010080835404028352916020019161027f565b820191906000526020600020905b81548152906001019060200180831161026257829003601f168201915b5050505050815260200160038201548152505090506000600160008a8152602001908152602001600020604051806060016040529081600082015481526020016001820180546102ce90610d9f565b80601f01602080910402602001604051908101604052809291908181526020018280546102fa90610d9f565b80156103475780601f1061031c57610100808354040283529160200191610347565b820191906000526020600020905b81548152906001019060200180831161032a57829003601f168201915b5050505050815260200160028201805461036090610d9f565b80601f016020809104026020016040519081016040528092919081815260200182805461038c90610d9f565b80156103d95780601f106103ae576101008083540402835291602001916103d9565b820191906000526020600020905b8154815290600101906020018083116103bc57829003601f168201915b5050505050815250509050600082606001511415610422578160200151826040015183606001518360000151846020015185604001519750975097509750975097505050610462565b8160200151826040015183606001516000604051806020016040528060008152506040518060200160405280600081525097509750975097509750975050505b91939550919395565b60008260008085815260200190815260200160002060000154141561053c578360405160200161049b9190610b55565b604051602081830303815290604052805190602001206000808581526020019081526020016000206001016040516020016104d69190610ba1565b60405160208183030381529060405280519060200120141561053b5760008060008581526020019081526020016000206003015414801561052c5750816001600085815260200190815260200160002060000154145b1561053a5760019050610541565b5b5b600090505b9392505050565b600086866000825111801561055e575060008151115b61059d576040517f08c379a000000000000000000000000000000000000000000000000000000000815260040161059490610c6b565b60405180910390fd5b60008989896040516020016105b493929190610b6c565b60405160208183030381529060405280519060200120905060405180608001604052808281526020018b81526020018a81526020018981525060008083815260200190815260200160002060008201518160000155602082015181600101908051906020019061062592919061070c565b50604082015181600201908051906020019061064292919061070c565b506060820151816003015590505060008814156106cf57604051806060016040528088815260200187815260200186815250600160008381526020019081526020016000206000820151816000015560208201518160010190805190602001906106ad92919061070c565b5060408201518160020190805190602001906106ca92919061070c565b509050505b807f579aacb5f55924ff6c6c8b22406a76c86444b85a813ef07c30c43a25eb6ef1f360405160405180910390a28093505050509695505050505050565b82805461071890610d9f565b90600052602060002090601f01602090048101928261073a5760008555610781565b82601f1061075357805160ff1916838001178555610781565b82800160010185558215610781579182015b82811115610780578251825591602001919060010190610765565b5b50905061078e9190610792565b5090565b5b808211156107ab576000816000905550600101610793565b5090565b60006107c26107bd84610cd0565b610cab565b9050828152602081018484840111156107de576107dd610e6f565b5b6107e9848285610d5d565b509392505050565b60008135905061080081610ee1565b92915050565b600082601f83011261081b5761081a610e6a565b5b813561082b8482602086016107af565b91505092915050565b60008135905061084381610ef8565b92915050565b60006020828403121561085f5761085e610e79565b5b600061086d848285016107f1565b91505092915050565b60008060006060848603121561088f5761088e610e79565b5b600084013567ffffffffffffffff8111156108ad576108ac610e74565b5b6108b986828701610806565b93505060206108ca868287016107f1565b92505060406108db86828701610834565b9150509250925092565b60008060008060008060c0878903121561090257610901610e79565b5b600087013567ffffffffffffffff8111156109205761091f610e74565b5b61092c89828a01610806565b965050602087013567ffffffffffffffff81111561094d5761094c610e74565b5b61095989828a01610806565b955050604061096a89828a01610834565b945050606061097b89828a01610834565b935050608087013567ffffffffffffffff81111561099c5761099b610e74565b5b6109a889828a01610806565b92505060a087013567ffffffffffffffff8111156109c9576109c8610e74565b5b6109d589828a01610806565b9150509295509295509295565b6109eb81610d3d565b82525050565b6109fa81610d49565b82525050565b6000610a0b82610d16565b610a158185610d21565b9350610a25818560208601610d6c565b610a2e81610e7e565b840191505092915050565b6000610a4482610d16565b610a4e8185610d32565b9350610a5e818560208601610d6c565b80840191505092915050565b60008154610a7781610d9f565b610a818186610d32565b94506001821660008114610a9c5760018114610aad57610ae0565b60ff19831686528186019350610ae0565b610ab685610d01565b60005b83811015610ad857815481890152600182019150602081019050610ab9565b838801955050505b50505092915050565b6000610af6601c83610d21565b9150610b0182610e8f565b602082019050919050565b6000610b19601383610d21565b9150610b2482610eb8565b602082019050919050565b610b3881610d53565b82525050565b610b4f610b4a82610d53565b610e02565b82525050565b6000610b618284610a39565b915081905092915050565b6000610b788286610a39565b9150610b848285610a39565b9150610b908284610b3e565b602082019150819050949350505050565b6000610bad8284610a6a565b915081905092915050565b6000602082019050610bcd60008301846109e2565b92915050565b6000602082019050610be860008301846109f1565b92915050565b600060c0820190508181036000830152610c088189610a00565b90508181036020830152610c1c8188610a00565b9050610c2b6040830187610b2f565b610c386060830186610b2f565b8181036080830152610c4a8185610a00565b905081810360a0830152610c5e8184610a00565b9050979650505050505050565b60006020820190508181036000830152610c8481610ae9565b9050919050565b60006020820190508181036000830152610ca481610b0c565b9050919050565b6000610cb5610cc6565b9050610cc18282610dd1565b919050565b6000604051905090565b600067ffffffffffffffff821115610ceb57610cea610e3b565b5b610cf482610e7e565b9050602081019050919050565b60008190508160005260206000209050919050565b600081519050919050565b600082825260208201905092915050565b600081905092915050565b60008115159050919050565b6000819050919050565b6000819050919050565b82818337600083830152505050565b60005b83811015610d8a578082015181840152602081019050610d6f565b83811115610d99576000848401525b50505050565b60006002820490506001821680610db757607f821691505b60208210811415610dcb57610dca610e0c565b5b50919050565b610dda82610e7e565b810181811067ffffffffffffffff82111715610df957610df8610e3b565b5b80604052505050565b6000819050919050565b7f4e487b7100000000000000000000000000000000000000000000000000000000600052602260045260246000fd5b7f4e487b7100000000000000000000000000000000000000000000000000000000600052604160045260246000fd5b600080fd5b600080fd5b600080fd5b600080fd5b6000601f19601f8301169050919050565b7f416c6c206669656c6473206d757374206265206e6f6e2d656d70747900000000600082015250565b7f5573657220646f6573206e6f7420657869737400000000000000000000000000600082015250565b610eea81610d49565b8114610ef557600080fd5b50565b610f0181610d53565b8114610f0c57600080fd5b5056fea26469706673582212203807432e5fbe14f9da5c1e4010997b4082b78aa25b9c2871e5d278754172eed164736f6c63430008070033",
  "immutableReferences": {},
  "source": "// SPDX-License-Identifier: MIT\r\npragma solidity >=0.5.0 < 0.9.0;\r\n\r\ncontract Identity {\r\n\r\n    // enum IDtype {Aadhar, Passport, License}\r\n\r\n    struct user {\r\n        bytes32 uid;\r\n        string name;\r\n        string dob;\r\n        uint idtype;\r\n    }\r\n\r\n    struct aadhar {\r\n        uint number;\r\n        string addres;\r\n        string gender;\r\n    }\r\n\r\n    event UserAdded(bytes32 indexed uid);\r\n\r\n    mapping (bytes32 => user) users;\r\n    mapping (bytes32 => aadhar) useraadhar;\r\n\r\n    modifier Basicdetails(string memory a, string memory b) {\r\n        require(bytes(a).length > 0 && bytes(b).length > 0, \"All fields must be non-empty\");\r\n        _;\r\n    }\r\n\r\n    // Function to add a new user\r\n    function addUser(\r\n        string memory _name,\r\n        string memory _dob, \r\n        uint _idtype, \r\n        uint idNum, \r\n        string memory idaddr,\r\n        string memory idgender\r\n    ) public Basicdetails(_name, _dob) returns (bytes32) {\r\n        // Generate a unique hash for the user using their details\r\n        bytes32 inputHash = keccak256(abi.encodePacked(_name, _dob, _idtype));\r\n        // Store the user details in the users mapping\r\n        users[inputHash] = user(inputHash, _name, _dob, _idtype);\r\n\r\n        // If the user ID type is Aadhar (idtype == 0), store Aadhar details in the useraadhar mapping\r\n        if (_idtype == 0) {\r\n            useraadhar[inputHash] = aadhar(idNum, idaddr, idgender);\r\n        }\r\n        emit UserAdded(inputHash);\r\n        return inputHash;\r\n    }\r\n\r\n    // Function to verify if a user exists based on their details\r\n    function verifyUser(\r\n        string memory _name, \r\n        bytes32 _uid, \r\n        uint _idNum\r\n    ) public view returns (bool) {\r\n        // Check if the user with the provided uid exists\r\n        if (users[_uid].uid == _uid) {\r\n            // Further verify if the name matches\r\n            if (keccak256(abi.encodePacked(users[_uid].name)) == keccak256(abi.encodePacked(_name))) {\r\n                // If idtype is Aadhar (idtype == 0), match the Aadhar number\r\n                if (users[_uid].idtype == 0 && useraadhar[_uid].number == _idNum) {\r\n                    return true; // User exists\r\n                }\r\n            }\r\n        }\r\n        return false; // User does not exist or details don't match\r\n    }\r\n\r\n    // Function to display user details based on their unique hash\r\n    function display(bytes32 hash) public view returns (\r\n        string memory name, \r\n        string memory dob, \r\n        uint idtype, \r\n        uint aadharNum, \r\n        string memory aadharAddr, \r\n        string memory aadharGender\r\n    ) {\r\n        // Ensure the user exists before displaying their details\r\n        require(users[hash].uid == hash, \"User does not exist\");\r\n\r\n        // Retrieve user details from the mappings\r\n        user memory usr = users[hash];\r\n        aadhar memory adharDetails = useraadhar[hash];\r\n\r\n        // If the user's ID type is Aadhar (idtype == 0), return their Aadhar details\r\n        if (usr.idtype == 0) {\r\n            return (usr.name, usr.dob, usr.idtype, adharDetails.number, adharDetails.addres, adharDetails.gender);\r\n        } else {\r\n            // If the user has another ID type, return default empty values for Aadhar fields\r\n            return (usr.name, usr.dob, usr.idtype, 0, \"\", \"\");\r\n        }\r\n    }\r\n}\r\n",
  "sourcePath": "C:\\Users\\Harsh Iceball\\Desktop\\IdentityManager\\contracts\\Identity.sol",
  "compiler": {
    "name": "solc",
    "version": "0.8.7+commit.e28d00a7.Emscripten.clang"
  },
  "schemaVersion": "3.4.16",
  "updatedAt": "2024-10-17T16:41:00.524Z",
  "networkType": "ethereum",
  "devdoc": {
    "kind": "dev",
    "methods": {},
    "version": 1
  },
  "userdoc": {
    "kind": "user",
    "methods": {},
    "version": 1
  }
}