{
  "contractName": "Identity",
  "abi": [
    {
      "inputs": [],
      "stateMutability": "nonpayable",
      "type": "constructor"
    },
    {
      "inputs": [],
      "name": "owner",
      "outputs": [
        {
          "internalType": "address",
          "name": "",
          "type": "address"
        }
      ],
      "stateMutability": "view",
      "type": "function",
      "constant": true
    },
    {
      "inputs": [
        {
          "internalType": "uint256",
          "name": "",
          "type": "uint256"
        }
      ],
      "name": "users",
      "outputs": [
        {
          "internalType": "uint256",
          "name": "uid",
          "type": "uint256"
        },
        {
          "internalType": "uint256",
          "name": "id",
          "type": "uint256"
        },
        {
          "internalType": "string",
          "name": "name",
          "type": "string"
        },
        {
          "internalType": "string",
          "name": "email",
          "type": "string"
        }
      ],
      "stateMutability": "view",
      "type": "function",
      "constant": true
    },
    {
      "inputs": [
        {
          "internalType": "uint256",
          "name": "_uid",
          "type": "uint256"
        },
        {
          "internalType": "uint256",
          "name": "_id",
          "type": "uint256"
        },
        {
          "internalType": "string",
          "name": "_name",
          "type": "string"
        },
        {
          "internalType": "string",
          "name": "_email",
          "type": "string"
        }
      ],
      "name": "adduser",
      "outputs": [],
      "stateMutability": "nonpayable",
      "type": "function"
    },
    {
      "inputs": [
        {
          "internalType": "uint256",
          "name": "_uid",
          "type": "uint256"
        }
      ],
      "name": "verifybyUID",
      "outputs": [
        {
          "internalType": "bool",
          "name": "",
          "type": "bool"
        }
      ],
      "stateMutability": "view",
      "type": "function",
      "constant": true
    }
  ],
  "bytecode": "0x608060405234801561001057600080fd5b50336000806101000a81548173ffffffffffffffffffffffffffffffffffffffff021916908373ffffffffffffffffffffffffffffffffffffffff160217905550610914806100606000396000f3fe608060405234801561001057600080fd5b506004361061004c5760003560e01c80630b6f881c14610051578063365b98b21461008157806356e96353146100b45780638da5cb5b146100d0575b600080fd5b61006b600480360381019061006691906104be565b6100ee565b604051610078919061062e565b60405180910390f35b61009b600480360381019061009691906104be565b610118565b6040516100ab9493929190610669565b60405180910390f35b6100ce60048036038101906100c991906104eb565b610258565b005b6100d8610372565b6040516100e59190610613565b60405180910390f35b60006002600083815260200190815260200160002060009054906101000a900460ff169050919050565b6001602052806000526040600020600091509050806000015490806001015490806002018054610147906107b8565b80601f0160208091040260200160405190810160405280929190818152602001828054610173906107b8565b80156101c05780601f10610195576101008083540402835291602001916101c0565b820191906000526020600020905b8154815290600101906020018083116101a357829003601f168201915b5050505050908060030180546101d5906107b8565b80601f0160208091040260200160405190810160405280929190818152602001828054610201906107b8565b801561024e5780601f106102235761010080835404028352916020019161024e565b820191906000526020600020905b81548152906001019060200180831161023157829003601f168201915b5050505050905084565b836002600082815260200190815260200160002060009054906101000a900460ff16156102ba576040517f08c379a00000000000000000000000000000000000000000000000000000000081526004016102b190610649565b60405180910390fd5b604051806080016040528086815260200185815260200184815260200183815250600160008781526020019081526020016000206000820151816000015560208201518160010155604082015181600201908051906020019061031e929190610396565b50606082015181600301908051906020019061033b929190610396565b5090505060016002600087815260200190815260200160002060006101000a81548160ff0219169083151502179055505050505050565b60008054906101000a900473ffffffffffffffffffffffffffffffffffffffff1681565b8280546103a2906107b8565b90600052602060002090601f0160209004810192826103c4576000855561040b565b82601f106103dd57805160ff191683800117855561040b565b8280016001018555821561040b579182015b8281111561040a5782518255916020019190600101906103ef565b5b509050610418919061041c565b5090565b5b8082111561043557600081600090555060010161041d565b5090565b600061044c610447846106e1565b6106bc565b9050828152602081018484840111156104685761046761087e565b5b610473848285610776565b509392505050565b600082601f8301126104905761048f610879565b5b81356104a0848260208601610439565b91505092915050565b6000813590506104b8816108c7565b92915050565b6000602082840312156104d4576104d3610888565b5b60006104e2848285016104a9565b91505092915050565b6000806000806080858703121561050557610504610888565b5b6000610513878288016104a9565b9450506020610524878288016104a9565b935050604085013567ffffffffffffffff81111561054557610544610883565b5b6105518782880161047b565b925050606085013567ffffffffffffffff81111561057257610571610883565b5b61057e8782880161047b565b91505092959194509250565b6105938161072e565b82525050565b6105a281610740565b82525050565b60006105b382610712565b6105bd818561071d565b93506105cd818560208601610785565b6105d68161088d565b840191505092915050565b60006105ee60168361071d565b91506105f98261089e565b602082019050919050565b61060d8161076c565b82525050565b6000602082019050610628600083018461058a565b92915050565b60006020820190506106436000830184610599565b92915050565b60006020820190508181036000830152610662816105e1565b9050919050565b600060808201905061067e6000830187610604565b61068b6020830186610604565b818103604083015261069d81856105a8565b905081810360608301526106b181846105a8565b905095945050505050565b60006106c66106d7565b90506106d282826107ea565b919050565b6000604051905090565b600067ffffffffffffffff8211156106fc576106fb61084a565b5b6107058261088d565b9050602081019050919050565b600081519050919050565b600082825260208201905092915050565b60006107398261074c565b9050919050565b60008115159050919050565b600073ffffffffffffffffffffffffffffffffffffffff82169050919050565b6000819050919050565b82818337600083830152505050565b60005b838110156107a3578082015181840152602081019050610788565b838111156107b2576000848401525b50505050565b600060028204905060018216806107d057607f821691505b602082108114156107e4576107e361081b565b5b50919050565b6107f38261088d565b810181811067ffffffffffffffff821117156108125761081161084a565b5b80604052505050565b7f4e487b7100000000000000000000000000000000000000000000000000000000600052602260045260246000fd5b7f4e487b7100000000000000000000000000000000000000000000000000000000600052604160045260246000fd5b600080fd5b600080fd5b600080fd5b600080fd5b6000601f19601f8301169050919050565b7f5468697320696420616c72656164792065786973747300000000000000000000600082015250565b6108d08161076c565b81146108db57600080fd5b5056fea2646970667358221220894b2f2504836b078714cbb7fe0a5c2164729dbb6e369d779f814118844d8a3a64736f6c63430008070033",
  "immutableReferences": {},
  "source": "// SPDX-License-Identifier: MIT\r\npragma solidity >=0.5.0 < 0.9.0;\r\n\r\ncontract Identity{\r\n\r\n    address public owner;\r\n\r\n    struct user {\r\n        uint uid;\r\n        uint id;\r\n        string name;\r\n        string email;\r\n    }\r\n\r\n    constructor(){\r\n        owner = msg.sender;\r\n    }\r\n\r\n    mapping (uint => user) public users;\r\n\r\n    mapping (uint => bool ) isidused;\r\n\r\n    modifier alreadyusedID(uint _uid ) {\r\n        require(!isidused[_uid], \"This id already exists\");\r\n        _;\r\n    }\r\n\r\n    function adduser(uint _uid, uint _id , string memory _name, string memory _email ) public  alreadyusedID(_uid){\r\n        users[_uid] = user(_uid,_id,_name, _email);\r\n        isidused[_uid]=true;\r\n    }\r\n\r\n    function verifybyUID(uint _uid) public view returns (bool) {\r\n        return isidused[_uid];\r\n    }\r\n\r\n}",
  "sourcePath": "C:\\Users\\Harsh Iceball\\Desktop\\IdentityManager\\contracts\\Identity.sol",
  "compiler": {
    "name": "solc",
    "version": "0.8.7+commit.e28d00a7.Emscripten.clang"
  },
  "schemaVersion": "3.4.16",
  "updatedAt": "2024-10-16T01:38:55.784Z",
  "networkType": "ethereum",
  "devdoc": {
    "kind": "dev",
    "methods": {},
    "version": 1
  },
  "userdoc": {
    "kind": "user",
    "methods": {},
    "version": 1
  }
}